:10000000E8C0000014C1000012C1000010C10000CF
:100010000EC100000CC100000AC1000008C10000B0
:1000200006C1000004C1000002C1000000C10000C0
:10003000FEC00000FCC00000FAC00000F8C00000D4
:10004000F6C00000F4C00000F2C00000F0C00000E4
:10005000EEC00000ECC00000EAC00000DDC30000FC
:10006000E6C00000A3C3000078C30000E0C00000A9
:10007000DEC00000DCC00000DAC00000D8C0000014
:10008000D6C00000D4C00000D2C00000D0C0000024
:10009000CEC00000CCC00000CAC0000007C40000F1
:1000A000C6C00000C4C00000C2C00000C0C0000044
:1000B000BEC00000BCC00000BAC00000B8C0000054
:1000C000B6C00000B4C00000B2C00000B0C0000064
:1000D000AEC00000ACC00000AAC00000A8C0000074
:1000E000A6C0000000002200250028002B002E00E2
:1000F0003100340002010000050108010B01050573
:100100000505070508080808020202020A0A08088D
:1001100004040404010101010101010103030303BB
:1001200003030303040707070C0C0C0C0C0C0C0C4A
:100130000202020206060606060606060B0B0B0B5B
:100140000B0B0B0B01021020200808102040102080
:10015000408002010201080402010102040810208B
:100160004080804020100804020180040201804089
:1001700020100804020108040201010204081020F2
:100180004080010204081020408000000A0B020990
:100190000C0D0E0807030401000000000000000021
:1001A000000000000000000000000000000000004F
:1001B000000000000000121110000000000000000C
:1001C000000000000000000000000000000000002F
:1001D000790511241FBECFEFD1E2DEBFCDBF00E015
:1001E0000CBF12E0A0E0B2E0EEECF0E100E00BBFEB
:1001F00002C007900D92A632B107D9F723E0A6E21C
:10020000B2E001C01D92AC38B207E1F710E0C9EED0
:10021000D0E000E005C021970109802FFE014DD7F5
:10022000C83ED10780E00807B1F79CD44EC7E8CE9E
:10023000282F30E0F901E657FE4F9491F901EC5B6D
:10024000FE4F449122503F4FF9012491222309F49B
:1002500031C0992309F191509231F0F4E92FF0E087
:100260008827EB5CFE4F8F4F28C76301670147016A
:100270005B015F014C016A01700174017A017E012A
:10028000820188018C014C01900196019A018091B4
:1002900080008F7780938000E22FF0E0EE0FFF1F49
:1002A000EC51FF4FA591B4918FB7F894EC914E2B80
:1002B0004C938FBF0895809180008F7DEBCF80910C
:1002C0008000877FE7CF84B58F7784BDE5CF84B585
:1002D0008F7DFBCF8091B0008F778093B000DCCF13
:1002E0008091B0008F7DF9CF809190008F778093BF
:1002F0009000D2CF809190008F7DF9CF80919000B7
:10030000877FF5CF8091A0008F778093A000C4CF26
:100310008091A0008F7DF9CF8091A000877FF5CFDD
:10032000809120018F7780932001B6CF80912001AA
:100330008F7DF9CF80912001877FF5CF08950895B3
:10034000AF92BF92CF92DF92EF92FF920F931F93E3
:10035000CF93DF936C017B018B01040F151FEB0121
:100360005E01AE18BF08C017D10759F06991D601D8
:10037000ED91FC910190F081E02DC6011995892B3A
:1003800079F7C501DF91CF911F910F91FF90EF9009
:10039000DF90CF90BF90AF900895FC01538D448DB6
:1003A000252F30E0842F90E0821B930B541710F020
:1003B000CF96089501970895FC01918D828D98172D
:1003C00061F0A28DAE0FBF2FB11D5D968C91928D05
:1003D0009F5F9F73928F90E008958FEF9FEF089536
:1003E000FC01918D828D981731F0828DE80FF11DFF
:1003F000858D90E008958FEF9FEF0895FC01918D1A
:10040000228D892F90E0805C9F4F821B91098F7312
:100410009927089583EE92E0F1DF21E0892B09F41A
:1004200020E0822F0895FC01A48DA80FB92FB11DE3
:10043000A35ABF4F2C91848D90E001968F7399271A
:10044000848FA689B7892C93A089B1898C918370F8
:1004500080648C93938D848D981306C00288F389F1
:10046000E02D80818F7D80830895EF92FF920F931E
:100470001F93CF93DF93EC0181E0888F9B8D8C8D50
:1004800098131AC0E889F989808185FF15C09FB744
:10049000F894EE89FF896083E889F9898081837007
:1004A000806480839FBF81E090E0DF91CF911F91B6
:1004B0000F91FF90EF900895F62E0B8D10E00F5FD7
:1004C0001F4F0F731127E02E8C8D8E110BC00FB6AE
:1004D00007FCFACFE889F989808185FFF5CFCE0145
:1004E000A2DFF2CFEB8DEC0FFD2FF11DE35AFF4F92
:1004F000F0829FB7F8940B8FEA89FB898081806234
:10050000D0CFCF93DF93EC01888D8823B1F0AA89F7
:10051000BB89E889F9898C9185FD03C0808186FDBE
:100520000CC00FB607FCF7CF8C9185FFF2CF80810E
:1005300085FFEDCFCE0177DFEACFDF91CF91089530
:1005400080E090E0892B21F065DF81110E9400009E
:1005500080E090E0892B49F080E090E0892B29F041
:100560000E94000081110E94000080E090E0892B31
:1005700049F080E090E0892B29F00E940000811171
:100580000E94000080E090E0892B49F080E090E03C
:10059000892B29F00E94000081110C94000008951D
:1005A0003FB7F89480918E0290918F02A0919002B3
:1005B000B091910226B5A89B05C02F3F19F0019676
:1005C000A11DB11D3FBFBA2FA92F982F8827BC01AD
:1005D000CD01620F711D811D911D42E0660F771FD5
:1005E000881F991F4A95D1F7089585ED8093BC0027
:1005F0008091BC0084FDFCCF1092BE020895209132
:100600006602260F3327331F21323105ECF4209187
:10061000BE02FC0190E080E0243069F082E00895A1
:10062000A09166022191AC014A5B5D4FA40FB52FEA
:10063000B11D2C930196861798F380916602680F7E
:100640006093660280E0089581E008950895E09146
:10065000970280919602E81730F4F0E0EA5DFD4FD2
:10066000808190E008958FEF9FEF08959091970219
:10067000809196022FEF3FEF981748F4E92FF0E0B2
:10068000EA5DFD4F208130E09F5F90939702C901A2
:1006900008958091960290919702891B990B089575
:1006A000CF92DF92EF92FF920F931F93CF93DF933E
:1006B0007C01CB018A012091BF02222389F0EB014A
:1006C0006B01C40ED51ECC15DD0561F06991D70113
:1006D000ED91FC910190F081E02DC7011995F3CFC8
:1006E000642F8DDFC801DF91CF911F910F91FF9093
:1006F000EF90DF90CF900895CF93DF931F92CDB707
:10070000DEB769832091BF022223F9F02091E20233
:10071000203258F021E030E0FC013383228390E066
:1007200080E00F90DF91CF9108958091C002E82F73
:10073000F0E0EF53FD4F998190838F5F8093C0026B
:100740008093E20281E090E0ECCF61E0CE0101967F
:1007500056DFF8CF90E080E008951F920F920FB619
:100760000F9211240BB60F922F933F934F935F93E9
:100770006F937F938F939F93AF93BF93EF93FF9369
:1007800083EE92E050DEFF91EF91BF91AF919F9188
:100790008F917F916F915F914F913F912F910F902A
:1007A0000BBE0F900FBE0F901F9018951F920F92C7
:1007B0000FB60F9211240BB60F922F938F939F9326
:1007C000EF93FF93E091F302F091F4028081E091C6
:1007D000F902F091FA0282FD1DC090818091FC0225
:1007E0008F5F8F732091FD02821741F0E091FC0230
:1007F000F0E0ED51FD4F958F8093FC02FF91EF915A
:100800009F918F912F910F900BBE0F900FBE0F9065
:100810001F9018958081F2CF1F920F920FB60F9202
:1008200011242F933F938F939F93AF93BF93809106
:100830008A0290918B02A0918C02B0918D0230912E
:10084000890223E0230F2D3758F50196A11DB11D14
:100850002093890280938A0290938B02A0938C024A
:10086000B0938D0280918E0290918F02A0919002A0
:10087000B09191020196A11DB11D80938E029093BB
:100880008F02A0939002B0939102BF91AF919F917C
:100890008F913F912F910F900FBE0F901F90189541
:1008A00026E8230F0296A11DB11DD2CF1F920F92F1
:1008B0000FB60F9211240BB60F922F933F934F93C5
:1008C0005F936F937F938F939F93AF93BF93EF93B8
:1008D000FF938091B900887F803609F44CC008F0FE
:1008E0003FC0883209F4A8C028F5803109F49CC0C3
:1008F000C8F4882309F4FAC0883009F495C0FF9140
:10090000EF91BF91AF919F918F917F916F915F9187
:100910004F913F912F910F900BBE0F900FBE0F90F4
:100920001F901895883109F487C0803241F7809371
:10093000BC0214C0803409F49CC040F48033B9F385
:100940008833E9F68093BC0285ECAFC0803509F4AA
:1009500084C0883509F495C0883489F646DECFCF47
:10096000883909F48CC038F5883729F050F4883676
:1009700011F0803721F683E08093BE021092880246
:1009800057C0883809F47BC0803919F0803809F0E5
:10099000B6CF80918802803208F071C0E091880261
:1009A00081E08E0F809388028091BB00F0E0E859CF
:1009B000FD4F80833DC0803B39F0E0F4803A09F47C
:1009C00079C0883A09F09BCF84E08093BE021092F0
:1009D000670210926602E0919402F09195021995D7
:1009E0008091660281110FC081E0809366021092AF
:1009F000460209C0803C09F4A7CF883C09F4A4CF83
:100A0000883B09F07CCFE091670281E08E0F8093F4
:100A10006702F0E0EA5BFD4F80818093BB0090911C
:100A200067028091660229C0809199028093BB0081
:100A300085EC8093BC0063CF9091BB028091BA0299
:100A4000981758F5E091BB0281E08E0F8093BB02AE
:100A5000F0E0E656FD4F8081E9CFE091BB0281E0F6
:100A60008E0F8093BB028091BB00F0E0E656FD4FF5
:100A700080839091BB028091BA029817C8F285E8F2
:100A8000D8CFE091BB0281E08E0F8093BB028091B2
:100A9000BB00F0E0E656FD4F80838091BD028111DE
:100AA0005DCF81E08093980284EA8093BC0010922D
:100AB000BE0225CF85EC8093BC001092BE028091CF
:100AC0008802803230F4E0918802F0E0E859FD4F6E
:100AD00010826091880270E0E0919202F09193029E
:100AE00088E692E019951092880209CF1092BC0214
:100AF00035CFE3EEF2E01382128288EE93E0A0E0BD
:100B0000B0E084839583A683B78325E032E0318308
:100B1000208325EC30E03587248724EC30E03787CC
:100B2000268720EC30E0318B208B21EC30E0338BBA
:100B3000228B22EC30E0358B248B26EC30E0378B97
:100B4000268B118E128E138E148EE0E8F3E0138242
:100B5000128284839583A683B78387E192E0918391
:100B600080830895789484B5826084BD84B5816063
:100B700084BD85B5826085BD85B5816085BD809168
:100B80006E00816080936E001092810080918100E0
:100B900082608093810080918100816080938100D8
:100BA000809180008160809380008091B10084609A
:100BB0008093B1008091B00081608093B0008091FB
:100BC0009100826080939100809191008160809378
:100BD0009100809190008160809390008091A100AD
:100BE00082608093A1008091A10081608093A10028
:100BF0008091A00081608093A0008091210182609B
:100C00008093210180912101816080932101809155
:100C1000200181608093200180917A00846080931C
:100C20007A0080917A00826080937A0080917A00C5
:100C3000816080937A0080917A00806880937A0046
:100C40001092C100C2E0C09300021092970210926D
:100C500096021092C0021092E2021092BE0281E04F
:100C60008093BD021092980284E1E2DA85E1E0DA35
:100C70008091B9008E7F8093B9008091B9008D7FFB
:100C80008093B90088E48093B80085E48093BC0029
:100C90008EE991E090939502809394028FE991E020
:100CA0009093930280939202E091F302F091F40208
:100CB000C083E091EF02F091F0021082E091F10226
:100CC000F091F2028FEC80831092FB02E091F70228
:100CD000F091F80286E08083E091F502F091F6024F
:100CE000808180618083E091F502F091F60280813D
:100CF00088608083E091F502F091F602808180683F
:100D00008083E091F502F091F60280818F7D8083EF
:100D1000C1E0D2E01FEF05EE95ECF92EC093BF02C3
:100D2000C093E1021092C0021092E20280917B0017
:100D3000886080937B008091000220E4829FC00144
:100D40001124876080937C0080917A008064809376
:100D50007A0080917A0086FDFCCF809178006091C6
:100D60007900762F682F072E000C880B990B19D16C
:100D700023EC35EF44E151E479D0E0D080E893E012
:100D8000BBDC2091E202213208F03EC08091BE021D
:100D90008111FCCF8091E102D093BE02C093BD02CD
:100DA0001093BC021092BB022093BA02E1ECF2E075
:100DB000AAE9B2E090E0291352C0109299029091F2
:100DC0009902880F892B8093990280919802813033
:100DD00009F049C010929802809199028093BB005B
:100DE0008091BC0083FDF8CFF092BC008091BE02E0
:100DF0008230E1F38091BC028F3F31F08091BC02E0
:100E0000803211F08091BC021092C0021092E20276
:100E10001092BF02C5DB2B013C0188EE882E83E0D7
:100E2000982EA12CB12CBCDB641975098609970991
:100E3000683E734081059105B0F381E0881A9108FE
:100E4000A108B10828EE420E23E0521E611C711C5D
:100E500081149104A104B10431F772DB5FCF3191A9
:100E60003D939F5FA8CF0093BC00C0CF0CD0EBC0D8
:100E7000E3D040F0DAD030F021F45F3F19F0CCC07D
:100E8000511115C1CFC0F0D098F39923C9F3552360
:100E9000B1F3951B550BBB27AA276217730784076D
:100EA00038F09F5F5F4F220F331F441FAA1FA9F323
:100EB00033D00E2E3AF0E0E830D091505040E69515
:100EC000001CCAF729D0FE2F27D0660F771F881F76
:100ED000BB1F261737074807AB07B0E809F0BB0B65
:100EE000802DBF01FF2793585F4F2AF09E3F510589
:100EF00068F092C0DCC05F3FECF3983EDCF386956F
:100F000077956795B795F7959F5FC9F7880F911DFE
:100F10009695879597F90895E1E0660F771F881FEA
:100F2000BB1F621773078407BA0720F0621B730B9D
:100F3000840BBA0BEE1F88F7E095089504D06894EF
:100F4000B111B5C0089598D088F09F5790F0B92F8F
:100F50009927B751A0F0D1F0660F771F881F991F0E
:100F60001AF0BA95C9F712C0B13081F09FD0B1E044
:100F700008959CC0672F782F8827B85F39F0B93F54
:100F8000CCF3869577956795B395D9F73EF4909510
:100F90008095709561957F4F8F4F9F4F0895E8948E
:100FA00009C097FB3EF490958095709561957F4FB1
:100FB0008F4F9F4F9923A9F0F92F96E9BB2793955F
:100FC000F695879577956795B795F111F8CFFAF46F
:100FD000BB0F11F460FF1BC06F5F7F4F8F4F9F4FA0
:100FE00016C0882311F096E911C0772321F09EE8FE
:100FF000872F762F05C0662371F096E8862F70E064
:1010000060E02AF09A95660F771F881FDAF7880F3D
:101010009695879597F9089597F99F6780E870E00E
:1010200060E008959FEF80EC089500240A9416165E
:10103000170618060906089500240A9412161306C6
:10104000140605060895092E0394000C11F4882354
:1010500052F0BB0F40F4BF2B11F460FF04C06F5F70
:101060007F4F8F4F9F4F089557FD9058440F551F46
:1010700059F05F3F71F04795880F97FB991F61F01A
:101080009F3F79F087950895121613061406551F91
:10109000F2CF4695F1DF08C0161617061806991FFD
:1010A000F1CF86957105610508940895E894BB27F2
:1010B00066277727CB0197F90895EE0FFF1F881F4A
:0E10C0008BBF0790F691E02D1994F894FFCFA6
:1010CE0001000000003502A001CD018102FE01DC0D
:1010DE0001F001000000007C035003AA032603491F
:0610EE0003360327030096
:00000001FF
