:10000000F5C000000C9494080C9469080C943E0808
:100010000C941308DDC70000B0C7000083C70000C0
:1000200056C7000014C1000012C1000010C100003A
:100030000EC100000CC100000AC1000008C1000090
:1000400006C1000004C1000002C1000000C10000A0
:10005000FEC00000FCC00000FAC00000EEC60000B8
:10006000F6C00000B4C6000089C60000F0C0000061
:10007000EEC00000ECC00000EAC00000E8C00000D4
:10008000E6C00000E4C00000E2C00000E0C00000E4
:10009000DEC00000DCC00000DAC000000C94BF0825
:1000A000D6C00000D4C00000D2C00000D0C0000004
:1000B000CEC00000CCC00000CAC00000C8C0000014
:1000C000C6C00000C4C00000C2C00000C0C0000024
:1000D000BEC00000BCC00000BAC00000B8C0000034
:1000E000B6C0000000002100240027002A002D00D7
:1000F0003000330001010000040107010A01000083
:100100002200250028002B002E00310034000201BF
:100110000000050108010B01050505050705080894
:100120000808020202020A0A080804040404010181
:100130000101010101010303030303030303040796
:1001400007070C0C0C0C0C0C0C0C0202020206062D
:100150000606060606060B0B0B0B0B0B0B0B010220
:1001600010202008081020401020408002010201C9
:100170000804020101020408102040808040201081
:1001800008040201800402018040201008040201DA
:100190000804020101020408102040800102040842
:1001A0001020408000000A0B02090C0D0E08070306
:1001B000040100000000000000000000000000003A
:1001C000000000000000000000000000000000002F
:1001D00012111000000000000000000000000000EC
:1001E00000000000000000000000E20911241FBE12
:1001F000CFEFD1E2DEBFCDBF00E00CBF12E0A0E048
:10020000B2E0E4EAF6E100E00BBF02C007900D9215
:10021000AC36B107D9F723E0ACE6B2E001C01D92DD
:10022000AC3CB207E1F710E0C6EFD0E000E006C05A
:1002300021970109802FFE010E94480BC53FD1077D
:1002400080E00807A9F70E94370A0C94500BD8CE1B
:100250009093010280930002EAE6F0E080818C7FB7
:10026000682B6083EC9A08950895CF93DF93AC01D7
:10027000E0910903F0910A033097F1F0909108039F
:10028000809107039817C0F090E0292F30E02617DF
:10029000370754F4D901A259BD4F240F351FE90186
:1002A00028812C939F5FF1CF10920803609307037E
:1002B000CB01DF91CF911994DF91CF910895AF9247
:1002C000BF92CF92DF92EF92FF920F931F93CF9343
:1002D000DF936C017B018B01040F151FEB015E01A5
:1002E000AE18BF08C017D10759F06991D601ED913A
:1002F000FC910190F081E02DC6011995892B79F7C9
:10030000C501DF91CF911F910F91FF90EF90DF908A
:10031000CF90BF90AF900895FC01538D448D252F51
:1003200030E0842F90E0821B930B541710F0CF968F
:10033000089501970895FC01918D828D981761F0C1
:10034000A28DAE0FBF2FB11D5D968C91928D9F5FD8
:100350009F73928F90E008958FEF9FEF0895FC01B7
:10036000918D828D981731F0828DE80FF11D858D6A
:1003700090E008958FEF9FEF0895FC01918D228DFD
:10038000892F90E0805C9F4F821B91098F73992782
:1003900008958BE093E0F1DF21E0892B09F420E060
:1003A000822F0895FC01A48DA80FB92FB11DA35A67
:1003B000BF4F2C91848D90E001968F739927848F85
:1003C000A689B7892C93A089B1898C9183708064A8
:1003D0008C93938D848D981306C00288F389E02D49
:1003E00080818F7D80830895EF92FF920F931F93FA
:1003F000CF93DF93EC0181E0888F9B8D8C8D9813D8
:100400001AC0E889F989808185FF15C09FB7F894E3
:10041000EE89FF896083E889F9898081837080642F
:1004200080839FBF81E090E0DF91CF911F910F917A
:10043000FF90EF900895F62E0B8D10E00F5F1F4F89
:100440000F731127E02E8C8D8E110BC00FB607FC99
:10045000FACFE889F989808185FFF5CFCE01A2DF47
:10046000F2CFEB8DEC0FFD2FF11DE35AFF4FF08221
:100470009FB7F8940B8FEA89FB8980818062D0CF87
:10048000CF93DF93EC01888D8823B1F0AA89BB89D3
:10049000E889F9898C9185FD03C0808186FD0CC0B7
:1004A0000FB607FCF7CF8C9185FFF2CF808185FFD7
:1004B000EDCFCE0177DFEACFDF91CF91089580E0D5
:1004C00090E0892B21F065DF81110E94000080E01F
:1004D00090E0892B49F080E090E0892B29F00E9480
:1004E000000081110E94000080E090E0892B49F01B
:1004F00080E090E0892B29F00E94000081110E9489
:10050000000080E090E0892B49F080E090E0892BAA
:1005100029F00E94000081110C9400000895282FFA
:1005200030E0F901EC55FE4F9491F901E25AFE4F8B
:100530004491285E3E4FF9012491222309F435C0ED
:10054000992311F191509231F8F4E92FF0E08827C6
:10055000E355FD4F8F4F0C94480BDE02E202BF02C1
:10056000D602DA02C402E502EB02EF02F502F9025A
:10057000FD0203030703C4020B031103150380915B
:1005800080008F7780938000E22FF0E0EE0FFF1F56
:10059000E250FF4FA591B4918FB7F894EC9161119F
:1005A00048C040954E234C938FBF089580918000A2
:1005B0008F7DE8CF80918000877FE4CF84B58F77EF
:1005C00084BDE2CF84B58F7DFBCF8091B0008F7763
:1005D0008093B000D9CF8091B0008F7DF9CF80910A
:1005E00090008F7780939000CFCF809190008F7D87
:1005F000F9CF80919000877FF5CF8091A0008F7711
:100600008093A000C1CF8091A0008F7DF9CF809111
:10061000A000877FF5CF809120018F778093200104
:10062000B3CF809120018F7DF9CF80912001877F0A
:10063000F5CF4E2BB8CFCF93DF9390E0FC01E25A79
:10064000FE4F2491885E9E4FFC0184918823D1F057
:1006500090E0880F991FFC01EC51FF4FA591B491D8
:10066000FC01E250FF4FC591D491623071F49FB705
:10067000F8943C91822F809583238C93E8812E2BD4
:1006800028839FBFDF91CF9108958FB7F894EC91A5
:100690002E2B2C938FBFF6CF3FB7F8948091FA02A0
:1006A0009091FB02A091FC02B091FD0226B5A89B9F
:1006B00005C02F3F19F00196A11DB11D3FBFBA2FF4
:1006C000A92F982F8827BC01CD01620F711D811DB4
:1006D000911D42E0660F771F881F991F4A95D1F739
:1006E00008958F929F92AF92BF92CF92DF92EF9236
:1006F000FF92D2DF4B015C0182E3C82ED12CE12CAA
:10070000F12CCADF681979098A099B09683E734090
:1007100081059105B0F321E0C21AD108E108F10882
:1007200088EE880E83E0981EA11CB11CC114D10470
:10073000E104F10431F7FF90EF90DF90CF90BF908C
:10074000AF909F908F9008950895089585ED8093C0
:10075000BC008091BC0084FDFCCF1092040308957E
:100760002091AE02260F3327331F21323105ECF4DE
:1007700020910403FC0190E080E0243069F082E0E5
:100780000895A091AE022191AC0142575D4FA40F94
:10079000B52FB11D2C930196861798F38091AE0268
:1007A000680F6093AE0280E0089581E00895089597
:1007B000E091080380910703E81730F4F0E0E25974
:1007C000FD4F808190E008958FEF9FEF0895909105
:1007D0000803809107032FEF3FEF981748F4E92FA4
:1007E000F0E0E259FD4F208130E09F5F90930803D5
:1007F000C90108958091070390910803891B990B03
:100800000895CF93DF93CB01EA01642FA9DFCE01D6
:10081000DF91CF910895CF93DF931F92CDB7DEB7CD
:10082000698361E0CE0101969BDF81E090E00F904B
:10083000DF91CF91089590E080E0089590910703B3
:1008400080910803981741F088EA93E0C0DF909305
:100850006D0280936C02F2CF08958F929F92AF92B7
:10086000BF920F931F93CF93DF93CDB7DEB7A197BE
:100870000FB6F894DEBF0FBECDBF19A2423008F408
:100880004AE08E010F5D1F4F842E912CB12CA12CBC
:10089000A5019401DBD6E62FB901CA01EA303CF587
:1008A000E05DD801EE938D01232B242B252B81F7BE
:1008B00090E080E0109761F0FD0101900020E9F7E1
:1008C0003197AF014A1B5B0BBD0184EB93E0F7DC72
:1008D000A1960FB6F894DEBF0FBECDBFDF91CF91CA
:1008E0001F910F91BF90AF909F908F900895E95CFA
:1008F000D8CFFC0101900020E9F73197AF01481BE8
:10090000590BBC0184EB93E0DACCCF93DF93EC017D
:1009100060E08E8104DE61E08E8101DE60E08E8128
:10092000FEDD8BE891E00197F1F7DF91CF9108951B
:10093000CF92DF92EF92FF920F931F93CF93DF93AB
:100940006C017C0187E0E80EF11CD0E0C0E0062FCE
:1009500010E0B8010C2E02C0759567950A94E2F775
:100960006170F70181917F01DADD2196C430D105F4
:1009700081F7C601DF91CF911F910F91FF90EF900A
:10098000DF90CF90C2CFCF92DF92EF92FF920F9382
:100990001F93CF93DF93EC01F62E642F8C81BFDD84
:1009A0008D818F3F11F060E0BADD0F2D10E08F8553
:1009B00084FF23C06E0187E0C80ED11CF12CE12C0E
:1009C000B8010E2C02C0759567950A94E2F7617024
:1009D000F60181916F01A3DDFFEFEF1AFF0A88E0B6
:1009E000E816F10469F7CE01DF91CF911F910F91C5
:1009F000FF90EF90DF90CF9088CFB80184E075959D
:100A000067958A95E1F7CE0193DF6F2DCE01DF91D7
:100A1000CF911F910F91FF90EF90DF90CF9088CFF3
:100A200040E0682F84EB93E0AECF81E0F9DF8BE309
:100A30009FE10197F1F70895CF93DF93823029F476
:100A40009091C30398609093C3038093C70310925F
:100A5000C80380E48093C90380E18093CA0380E5E2
:100A60008093CB0361E08091B803E5DD8091B90309
:100A70008F3F11F061E0DFDD61E08091BA03DBDDE3
:100A8000C4EBD3E09E01245B33408091C30384FD1B
:100A90000AC084E090E02196281739073CF461E011
:100AA0008E81C9DDEFCF88E090E0F5CF8BE39DE04C
:100AB0000197F1F760E08091B80331DD60E080914B
:100AC000BA032DDD8091B9038F3F11F060E027DD7F
:100AD0008091C30384FD2CC063E084EB93E028DFA6
:100AE000CBE4D6E4CE010197F1F763E084EB93E029
:100AF0001FDF2197F1F763E084EB93E019DF83E5D3
:100B000092E00197F1F762E084EB93E011DF8091CE
:100B1000C303806285DF84E08093C4038CE080DFC0
:100B200084DF82E08093C50386E0DF91CF9178CFA8
:100B3000806276DF8BE496E40197F1F78091C3033E
:100B400080626EDF83E592E00197F1F78091C30345
:100B5000806266DFDCCF9091C703691710F06FEFFA
:100B6000690FE62FF0E0EC54FC4F9489890F806800
:100B700057CF41E008DF81E090E00895CF92DF9207
:100B8000EF92FF926C01990FEE08FF08F7FE14C078
:100B900041E06DE284EB93E0F6DE66277727CB0138
:100BA0006C197D098E099F094AE057DE0196FF9076
:100BB000EF90DF90CF9008954AE0C701B601FF9013
:100BC000EF90DF90CF9049CECF93DF93EB0161E0C0
:100BD000C2DFC05CDD4FCE0180549240409734F4B8
:100BE000699141E084EB93E0CEDEF5CF81E592E0C0
:100BF00080DEDF91CF9175CDCF93DF9316DF60E07C
:100C000082E0A9DF80916C0290916D02B7DF809144
:100C10006C0290916D028931910544F560E085E0A8
:100C20009ADF8AE592E065DE88E592E062DE60E0C8
:100C30008CE091DF88E592E05CDECFE0D0E070E010
:100C400060E0CE01C1DF2197D0F7C1E0D0E0BE0166
:100C500090E080E0B9DF2196C131D105C1F762E0B3
:100C600070E089E696E0DF91CF91F2CA499760E0A3
:100C7000069790F485E06FDF85E692E03ADE88E53E
:100C800092E037DE60E08BE066DF88E592E031DEFF
:100C900088E592E02EDECECF85E05DDF81E692E052
:100CA000F9CFCF93DF93EB0160E055DFC05CDD4F00
:100CB000CE0180549240409734F4699141E084EB36
:100CC00093E061DEF5CF81E592E013DEDF91CF9115
:100CD00008CDCF93DF93A9DE61E082E03CDF809115
:100CE0006C0290916D024ADF80916C0290916D02CE
:100CF0008931910544F561E085E02DDF8AE592E0D8
:100D0000F8DD88E592E0F5DD61E08CE024DF88E540
:100D100092E0EFDDCFE0D0E070E060E0CE01C1DF37
:100D20002197D0F7C1E0D0E0BE0190E080E0B9DFCC
:100D30002196C131D105C1F763E070E08CEF95E0F9
:100D4000DF91CF9185CA499761E0069790F485E0DD
:100D500002DF85E692E0CDDD88E592E0CADD61E064
:100D60008BE0F9DE88E592E0C4DD88E592E0C1DD44
:100D7000CECF85E0F0DE81E692E0F9CF1F920F92B0
:100D80000FB60F9211240BB60F922F933F934F93F0
:100D90005F936F937F938F939F93AF93BF93EF93E3
:100DA000FF938BE093E0FEDAFF91EF91BF91AF915B
:100DB0009F918F917F916F915F914F913F912F9173
:100DC0000F900BBE0F900FBE0F901F9018951F92A3
:100DD0000F920FB60F9211240BB60F922F938F9391
:100DE0009F93EF93FF93E0911B03F0911C0380818D
:100DF000E0912103F091220382FD1DC0908180913A
:100E000024038F5F8F7320912503821741F0E091B7
:100E10002403F0E0E55FFC4F958F80932403FF915E
:100E2000EF919F918F912F910F900BBE0F900FBE5E
:100E30000F901F9018958081F2CF1F920F920FB6DE
:100E40000F9211242F933F938F939F93AF93BF9350
:100E50008091F6029091F702A091F802B091F90208
:100E60003091F50223E0230F2D3758F50196A11D8F
:100E7000B11D2093F5028093F6029093F702A093A0
:100E8000F802B093F9028091FA029091FB02A091CE
:100E9000FC02B091FD020196A11DB11D8093FA02E2
:100EA0009093FB02A093FC02B093FD02BF91AF911F
:100EB0009F918F913F912F910F900FBE0F901F9098
:100EC000189526E8230F0296A11DB11DD2CF1F92BF
:100ED0000F920FB60F9211240BB60F922F933F93E0
:100EE0004F935F936F937F938F939F93AF93BF9332
:100EF000EF93FF93E0910E02F0910F021995FF918D
:100F0000EF91BF91AF919F918F917F916F915F9181
:100F10004F913F912F910F900BBE0F900FBE0F90EE
:100F20001F9018951F920F920FB60F9211240BB6B7
:100F30000F922F933F934F935F936F937F938F9372
:100F40009F93AF93BF93EF93FF93E0910C02F091C7
:100F50000D021995FF91EF91BF91AF919F918F91E4
:100F60007F916F915F914F913F912F910F900BBEA9
:100F70000F900FBE0F901F9018951F920F920FB6F3
:100F80000F9211240BB60F922F933F934F935F93C1
:100F90006F937F938F939F93AF93BF93EF93FF9341
:100FA000E0910202F09103021995FF91EF91BF9138
:100FB000AF919F918F917F916F915F914F913F91F1
:100FC0002F910F900BBE0F900FBE0F901F90189592
:100FD0001F920F920FB60F9211240BB60F922F9300
:100FE0003F934F935F936F937F938F939F93AF93B1
:100FF000BF93EF93FF93E0910002F09101021995E6
:10100000FF91EF91BF91AF919F918F917F916F91E0
:101010005F914F913F912F910F900BBE0F900FBE9C
:101020000F901F9018951F920F920FB60F921124D8
:101030000BB60F922F933F934F935F936F937F93D2
:101040008F939F93AF93BF93EF93FF93E0910A0227
:10105000F0910B021995FF91EF91BF91AF919F9184
:101060008F917F916F915F914F913F912F910F9051
:101070000BBE0F900FBE0F901F9018951F920F92EE
:101080000FB60F9211240BB60F922F933F934F93ED
:101090005F936F937F938F939F93AF93BF93EF93E0
:1010A000FF93E0910802F09109021995FF91EF91E9
:1010B000BF91AF919F918F917F916F915F914F9170
:1010C0003F912F910F900BBE0F900FBE0F901F906E
:1010D00018951F920F920FB60F9211240BB60F9214
:1010E0002F933F934F935F936F937F938F939F9330
:1010F000AF93BF93EF93FF93E0910602F091070245
:101100001995FF91EF91BF91AF919F918F917F9131
:101110006F915F914F913F912F910F900BBE0F9068
:101120000FBE0F901F9018951F920F920FB60F923F
:1011300011240BB60F922F933F934F935F936F93AE
:101140007F938F939F93AF93BF93EF93FF93E09120
:101150000402F09105021995FF91EF91BF91AF91B3
:101160009F918F917F916F915F914F913F912F91BF
:101170000F900BBE0F900FBE0F901F9018951F92EF
:101180000F920FB60F9211240BB60F922F933F932D
:101190004F935F936F937F938F939F93AF93BF937F
:1011A000EF93FF938091B900887F803609F44CC09B
:1011B00008F03FC0883209F4A8C028F5803109F44E
:1011C0009CC0C8F4882309F4FAC0883009F495C09B
:1011D000FF91EF91BF91AF919F918F917F916F910F
:1011E0005F914F913F912F910F900BBE0F900FBECB
:1011F0000F901F901895883109F487C0803241F70D
:101200008093D10214C0803409F49CC040F4803330
:10121000B9F38833E9F68093D10285ECAFC080350D
:1012200009F484C0883509F495C0883489F68EDACB
:10123000CFCF883909F48CC038F5883729F050F4BD
:10124000883611F0803721F683E0809304031092F2
:10125000D00257C0883809F47BC0803919F0803833
:1012600009F0B6CF8091D002803208F071C0E091D1
:10127000D00281E08E0F8093D0028091BB00F0E01D
:10128000E055FD4F80833DC0803B39F0E0F4803A6B
:1012900009F479C0883A09F09BCF84E08093040375
:1012A0001092AF021092AE02E0910003F0910103A0
:1012B00019958091AE0281110FC081E08093AE023A
:1012C00010928E0209C0803C09F4A7CF883C09F433
:1012D000A4CF883B09F07CCFE091AF0281E08E0F74
:1012E0008093AF02F0E0E257FD4F80818093BB0016
:1012F0009091AF028091AE0229C08091F402809358
:10130000BB0085EC8093BC0063CF9091F302809189
:10131000F202981758F5E091F30281E08E0F809366
:10132000F302F0E0EE52FD4F8081E9CFE091F3024D
:1013300081E08E0F8093F3028091BB00F0E0EE52CB
:10134000FD4F80839091F3028091F2029817C8F2CA
:1013500085E8D8CFE091F30281E08E0F8093F3020D
:101360008091BB00F0E0EE52FD4F8083809103033B
:1013700081115DCF81E08093020384EA8093BC00F9
:101380001092040325CF85EC8093BC0010920403D7
:101390008091D002803230F4E091D002F0E0E0554C
:1013A000FD4F10826091D00270E0E091FE02F0915A
:1013B000FF0280EB92E019951092D00209CF1092B3
:1013C000D10235CFEBE0F3E01382128288EE93E096
:1013D000A0E0B0E084839583A683B78324E132E064
:1013E0003183208325EC30E03587248724EC30E0FE
:1013F0003787268720EC30E0318B208B21EC30E0E2
:10140000338B228B22EC30E0358B248B26EC30E0C2
:10141000378B268B118E128E138E148EE8EAF3E032
:101420001382128284839583A683B78386E292E037
:1014300091838083E4EBF3E01382128288E392E0ED
:10144000918380838DE084838FEF85838CE0868316
:101450008BE087838AE0808789E0818788E08287C4
:101460001386148615861686178681E0E5CA789459
:1014700084B5826084BD84B5816084BD85B5826099
:1014800085BD85B5816085BD80916E00816080934A
:101490006E001092810080918100826080938100B3
:1014A00080918100816080938100809180008160C3
:1014B000809380008091B10084608093B10080911E
:1014C000B00081608093B000809191008260809331
:1014D00091008091910081608093910080919000B3
:1014E0008160809390008091A10082608093A10030
:1014F0008091A10081608093A1008091A000816013
:101500008093A000809121018260809321018091CD
:10151000210181608093210180912001816080936D
:10152000200180917A00846080937A0080917A0013
:10153000826080937A0080917A00816080937A0043
:1015400080917A00806880937A001092C100109296
:1015500008031092070310920603109205031092DD
:10156000040381E0809303031092020361E084E1AD
:101570000E948F0261E085E10E948F028091B90094
:101580008E7F8093B9008091B9008D7F8093B900E0
:1015900088E48093B80085E48093BC0084E391E004
:1015A000909301038093000385E391E09093FF0201
:1015B0008093FE0282E08093BA00E0911B03F091D9
:1015C0001C038083E0911703F09118031082E091CF
:1015D0001903F0911A038FEC808310922303E0919A
:1015E0001F03F091200386E08083E0911D03F091BA
:1015F0001E03808180618083E0911D03F0911E03B2
:10160000808188608083E0911D03F0911E038081BA
:1016100080688083E0911D03F0911E0380818F7D9F
:10162000808362E082E007D863E070E08CEF95E0B1
:101630000E94280182E000DA8EE194E090930A0390
:101640008093090346DB0E945F02FCCFA1E21A2EC1
:10165000AA1BBB1BFD010DC0AA1FBB1FEE1FFF1F56
:10166000A217B307E407F50720F0A21BB30BE40BA6
:10167000F50B661F771F881F991F1A9469F76095ED
:101680007095809590959B01AC01BD01CF010895A7
:10169000EE0FFF1F881F8BBF0790F691E02D199466
:0416A000F894FFCFEC
:1016A400A403A403A403A403A403A403A403A403FE
:1016B40000000000F4015F018C014002BD019B01A8
:1016C400AF01000000000B0401041B04D703FA035C
:1016D400E703D80300000000B9055F011B04A5035C
:1016E4004D6572742053696D73656B202020202032
:1016F400002020202020202020004E4F524D414C1D
:0C17040000434F4B20534943414B000071
:00000001FF
